{
  "contractName": "SingDao",
  "abi": [
    {
      "inputs": [
        {
          "internalType": "address",
          "name": "account",
          "type": "address"
        }
      ],
      "stateMutability": "nonpayable",
      "type": "constructor"
    },
    {
      "anonymous": false,
      "inputs": [
        {
          "indexed": true,
          "internalType": "address",
          "name": "owner",
          "type": "address"
        },
        {
          "indexed": true,
          "internalType": "address",
          "name": "spender",
          "type": "address"
        },
        {
          "indexed": false,
          "internalType": "uint256",
          "name": "amount",
          "type": "uint256"
        }
      ],
      "name": "Approval",
      "type": "event"
    },
    {
      "anonymous": false,
      "inputs": [
        {
          "indexed": true,
          "internalType": "address",
          "name": "delegator",
          "type": "address"
        },
        {
          "indexed": true,
          "internalType": "address",
          "name": "fromDelegate",
          "type": "address"
        },
        {
          "indexed": true,
          "internalType": "address",
          "name": "toDelegate",
          "type": "address"
        }
      ],
      "name": "DelegateChanged",
      "type": "event"
    },
    {
      "anonymous": false,
      "inputs": [
        {
          "indexed": true,
          "internalType": "address",
          "name": "delegate",
          "type": "address"
        },
        {
          "indexed": false,
          "internalType": "uint256",
          "name": "previousBalance",
          "type": "uint256"
        },
        {
          "indexed": false,
          "internalType": "uint256",
          "name": "newBalance",
          "type": "uint256"
        }
      ],
      "name": "DelegateVotesChanged",
      "type": "event"
    },
    {
      "anonymous": false,
      "inputs": [
        {
          "indexed": true,
          "internalType": "address",
          "name": "oldOwner",
          "type": "address"
        },
        {
          "indexed": true,
          "internalType": "address",
          "name": "newOwner",
          "type": "address"
        }
      ],
      "name": "OwnerChanged",
      "type": "event"
    },
    {
      "anonymous": false,
      "inputs": [
        {
          "indexed": true,
          "internalType": "address",
          "name": "newOwner",
          "type": "address"
        }
      ],
      "name": "OwnerNominated",
      "type": "event"
    },
    {
      "anonymous": false,
      "inputs": [
        {
          "indexed": true,
          "internalType": "address",
          "name": "previousOwner",
          "type": "address"
        },
        {
          "indexed": true,
          "internalType": "address",
          "name": "newOwner",
          "type": "address"
        }
      ],
      "name": "OwnershipTransferred",
      "type": "event"
    },
    {
      "anonymous": false,
      "inputs": [
        {
          "indexed": true,
          "internalType": "address",
          "name": "from",
          "type": "address"
        },
        {
          "indexed": true,
          "internalType": "address",
          "name": "to",
          "type": "address"
        },
        {
          "indexed": false,
          "internalType": "uint256",
          "name": "amount",
          "type": "uint256"
        }
      ],
      "name": "Transfer",
      "type": "event"
    },
    {
      "inputs": [],
      "name": "DELEGATION_TYPEHASH",
      "outputs": [
        {
          "internalType": "bytes32",
          "name": "",
          "type": "bytes32"
        }
      ],
      "stateMutability": "view",
      "type": "function",
      "constant": true
    },
    {
      "inputs": [],
      "name": "DOMAIN_TYPEHASH",
      "outputs": [
        {
          "internalType": "bytes32",
          "name": "",
          "type": "bytes32"
        }
      ],
      "stateMutability": "view",
      "type": "function",
      "constant": true
    },
    {
      "inputs": [],
      "name": "acceptOwnership",
      "outputs": [],
      "stateMutability": "nonpayable",
      "type": "function"
    },
    {
      "inputs": [
        {
          "internalType": "address",
          "name": "",
          "type": "address"
        },
        {
          "internalType": "uint32",
          "name": "",
          "type": "uint32"
        }
      ],
      "name": "checkpoints",
      "outputs": [
        {
          "internalType": "uint32",
          "name": "fromBlock",
          "type": "uint32"
        },
        {
          "internalType": "uint96",
          "name": "votes",
          "type": "uint96"
        }
      ],
      "stateMutability": "view",
      "type": "function",
      "constant": true
    },
    {
      "inputs": [],
      "name": "decimals",
      "outputs": [
        {
          "internalType": "uint8",
          "name": "",
          "type": "uint8"
        }
      ],
      "stateMutability": "view",
      "type": "function",
      "constant": true
    },
    {
      "inputs": [
        {
          "internalType": "address",
          "name": "",
          "type": "address"
        }
      ],
      "name": "delegates",
      "outputs": [
        {
          "internalType": "address",
          "name": "",
          "type": "address"
        }
      ],
      "stateMutability": "view",
      "type": "function",
      "constant": true
    },
    {
      "inputs": [],
      "name": "locker",
      "outputs": [
        {
          "internalType": "contract ILocker",
          "name": "",
          "type": "address"
        }
      ],
      "stateMutability": "view",
      "type": "function",
      "constant": true
    },
    {
      "inputs": [],
      "name": "name",
      "outputs": [
        {
          "internalType": "string",
          "name": "",
          "type": "string"
        }
      ],
      "stateMutability": "view",
      "type": "function",
      "constant": true
    },
    {
      "inputs": [
        {
          "internalType": "address",
          "name": "_owner",
          "type": "address"
        }
      ],
      "name": "nominateNewOwner",
      "outputs": [],
      "stateMutability": "nonpayable",
      "type": "function"
    },
    {
      "inputs": [],
      "name": "nominatedOwner",
      "outputs": [
        {
          "internalType": "address",
          "name": "",
          "type": "address"
        }
      ],
      "stateMutability": "view",
      "type": "function",
      "constant": true
    },
    {
      "inputs": [
        {
          "internalType": "address",
          "name": "",
          "type": "address"
        }
      ],
      "name": "nonces",
      "outputs": [
        {
          "internalType": "uint256",
          "name": "",
          "type": "uint256"
        }
      ],
      "stateMutability": "view",
      "type": "function",
      "constant": true
    },
    {
      "inputs": [
        {
          "internalType": "address",
          "name": "",
          "type": "address"
        }
      ],
      "name": "numCheckpoints",
      "outputs": [
        {
          "internalType": "uint32",
          "name": "",
          "type": "uint32"
        }
      ],
      "stateMutability": "view",
      "type": "function",
      "constant": true
    },
    {
      "inputs": [],
      "name": "owner",
      "outputs": [
        {
          "internalType": "address",
          "name": "",
          "type": "address"
        }
      ],
      "stateMutability": "view",
      "type": "function",
      "constant": true
    },
    {
      "inputs": [],
      "name": "symbol",
      "outputs": [
        {
          "internalType": "string",
          "name": "",
          "type": "string"
        }
      ],
      "stateMutability": "view",
      "type": "function",
      "constant": true
    },
    {
      "inputs": [],
      "name": "totalSupply",
      "outputs": [
        {
          "internalType": "uint256",
          "name": "",
          "type": "uint256"
        }
      ],
      "stateMutability": "view",
      "type": "function",
      "constant": true
    },
    {
      "inputs": [
        {
          "internalType": "address",
          "name": "dst",
          "type": "address"
        },
        {
          "internalType": "uint256",
          "name": "rawAmount",
          "type": "uint256"
        }
      ],
      "name": "mint",
      "outputs": [],
      "stateMutability": "nonpayable",
      "type": "function"
    },
    {
      "inputs": [
        {
          "internalType": "address",
          "name": "account",
          "type": "address"
        },
        {
          "internalType": "address",
          "name": "spender",
          "type": "address"
        }
      ],
      "name": "allowance",
      "outputs": [
        {
          "internalType": "uint256",
          "name": "",
          "type": "uint256"
        }
      ],
      "stateMutability": "view",
      "type": "function",
      "constant": true
    },
    {
      "inputs": [
        {
          "internalType": "address",
          "name": "spender",
          "type": "address"
        },
        {
          "internalType": "uint256",
          "name": "rawAmount",
          "type": "uint256"
        }
      ],
      "name": "approve",
      "outputs": [
        {
          "internalType": "bool",
          "name": "",
          "type": "bool"
        }
      ],
      "stateMutability": "nonpayable",
      "type": "function"
    },
    {
      "inputs": [
        {
          "internalType": "address",
          "name": "account",
          "type": "address"
        }
      ],
      "name": "balanceOf",
      "outputs": [
        {
          "internalType": "uint256",
          "name": "",
          "type": "uint256"
        }
      ],
      "stateMutability": "view",
      "type": "function",
      "constant": true
    },
    {
      "inputs": [
        {
          "internalType": "address",
          "name": "account",
          "type": "address"
        }
      ],
      "name": "nonceOf",
      "outputs": [
        {
          "internalType": "uint256",
          "name": "",
          "type": "uint256"
        }
      ],
      "stateMutability": "view",
      "type": "function",
      "constant": true
    },
    {
      "inputs": [
        {
          "internalType": "address",
          "name": "dst",
          "type": "address"
        },
        {
          "internalType": "uint256",
          "name": "rawAmount",
          "type": "uint256"
        }
      ],
      "name": "transfer",
      "outputs": [
        {
          "internalType": "bool",
          "name": "",
          "type": "bool"
        }
      ],
      "stateMutability": "nonpayable",
      "type": "function"
    },
    {
      "inputs": [
        {
          "internalType": "address",
          "name": "src",
          "type": "address"
        },
        {
          "internalType": "address",
          "name": "dst",
          "type": "address"
        },
        {
          "internalType": "uint256",
          "name": "rawAmount",
          "type": "uint256"
        }
      ],
      "name": "transferFrom",
      "outputs": [
        {
          "internalType": "bool",
          "name": "",
          "type": "bool"
        }
      ],
      "stateMutability": "nonpayable",
      "type": "function"
    },
    {
      "inputs": [
        {
          "internalType": "address",
          "name": "delegatee",
          "type": "address"
        }
      ],
      "name": "delegate",
      "outputs": [],
      "stateMutability": "nonpayable",
      "type": "function"
    },
    {
      "inputs": [
        {
          "internalType": "address",
          "name": "delegatee",
          "type": "address"
        },
        {
          "internalType": "uint256",
          "name": "nonce",
          "type": "uint256"
        },
        {
          "internalType": "uint256",
          "name": "expiry",
          "type": "uint256"
        },
        {
          "internalType": "uint8",
          "name": "v",
          "type": "uint8"
        },
        {
          "internalType": "bytes32",
          "name": "r",
          "type": "bytes32"
        },
        {
          "internalType": "bytes32",
          "name": "s",
          "type": "bytes32"
        }
      ],
      "name": "delegateBySig",
      "outputs": [],
      "stateMutability": "nonpayable",
      "type": "function"
    },
    {
      "inputs": [
        {
          "internalType": "address",
          "name": "account",
          "type": "address"
        }
      ],
      "name": "getCurrentVotes",
      "outputs": [
        {
          "internalType": "uint96",
          "name": "",
          "type": "uint96"
        }
      ],
      "stateMutability": "view",
      "type": "function",
      "constant": true
    },
    {
      "inputs": [
        {
          "internalType": "address",
          "name": "account",
          "type": "address"
        },
        {
          "internalType": "uint256",
          "name": "blockNumber",
          "type": "uint256"
        }
      ],
      "name": "getPriorVotes",
      "outputs": [
        {
          "internalType": "uint96",
          "name": "",
          "type": "uint96"
        }
      ],
      "stateMutability": "view",
      "type": "function",
      "constant": true
    },
    {
      "inputs": [
        {
          "internalType": "address",
          "name": "_locker",
          "type": "address"
        }
      ],
      "name": "setLocker",
      "outputs": [],
      "stateMutability": "nonpayable",
      "type": "function"
    }
  ],
  "bytecode": "0x60806040526a52b7d2dcc80cd2e40000006002553480156200002057600080fd5b50604051620020323803806200203283398101604081905262000043916200011c565b60006200004f62000118565b600080546001600160a01b0319166001600160a01b0383169081178255604051929350917f8be0079c531659141344cd1fd0a4f28419497f9722a3daafe3b4186f6b6457e0908290a350600280546001600160a01b03831660008181526005602052604080822080546001600160601b0319166001600160601b0390951694909417909355925491519092917fddf252ad1be2c89b69c2b068fc378daa952ba7f163c4a11628f55a4df523b3ef916200010991906200014c565b60405180910390a35062000155565b3390565b6000602082840312156200012e578081fd5b81516001600160a01b038116811462000145578182fd5b9392505050565b90815260200190565b611ecd80620001656000396000f3fe608060405234801561001057600080fd5b50600436106101a95760003560e01c806370a08231116100f9578063b4b5ea5711610097578063dd62ed3e11610071578063dd62ed3e14610366578063e7a324dc14610379578063ed2a2d6414610381578063f1127ed814610394576101a9565b8063b4b5ea5714610338578063c3cda5201461034b578063d7b96d4e1461035e576101a9565b80637ecebe00116100d35780637ecebe00146103025780638da5cb5b1461031557806395d89b411461031d578063a9059cbb14610325576101a9565b806370a08231146102c7578063782d6fe1146102da57806379ba5097146102fa576101a9565b806323b872dd1161016657806353a47bb71161014057806353a47bb71461026c578063587cde1e146102815780635c19a95c146102945780636fcfff45146102a7576101a9565b806323b872dd14610231578063313ce5671461024457806340c10f1914610259576101a9565b806306fdde03146101ae578063095ea7b3146101cc5780631627540c146101ec578063171060ec1461020157806318160ddd1461021457806320606b7014610229575b600080fd5b6101b66103b5565b6040516101c391906118fe565b60405180910390f35b6101df6101da366004611742565b6103e0565b6040516101c39190611884565b6101ff6101fa3660046116b3565b61049f565b005b6101ff61020f3660046116b3565b610531565b61021c610592565b6040516101c3919061188f565b61021c610598565b6101df61023f366004611702565b6105bc565b61024c610703565b6040516101c39190611c67565b6101ff610267366004611742565b610708565b6102746108b8565b6040516101c39190611856565b61027461028f3660046116b3565b6108c7565b6101ff6102a23660046116b3565b6108e2565b6102ba6102b53660046116b3565b6108ef565b6040516101c39190611c37565b61021c6102d53660046116b3565b610907565b6102ed6102e8366004611742565b61092b565b6040516101c39190611c75565b6101ff610b39565b61021c6103103660046116b3565b610bc7565b610274610bd9565b6101b6610be8565b6101df610333366004611742565b610c08565b6102ed6103463660046116b3565b610c44565b6101ff61035936600461176c565b610cb5565b610274610ec2565b61021c6103743660046116ce565b610ed1565b61021c610f05565b61021c61038f3660046116b3565b610f29565b6103a76103a23660046117cb565b610f44565b6040516101c3929190611c48565b6040518060400160405280600f81526020016e53696e67756c61726974792044616f60881b81525081565b6000806000198314156103f6575060001961041b565b61041883604051806060016040528060258152602001611d7060259139610f79565b90505b3360008181526004602090815260408083206001600160a01b03891680855292529182902080546001600160601b0319166001600160601b03861617905590519091907f8c5be1e5ebec7d5bd14f71427d1e84f3dd0314c0f7b2291e5b200ac8c7c3b9259061048b908590611c75565b60405180910390a360019150505b92915050565b6104a7610fa8565b6001600160a01b03166104b8610bd9565b6001600160a01b0316146104e75760405162461bcd60e51b81526004016104de90611aac565b60405180910390fd5b600180546001600160a01b0319166001600160a01b0383169081179091556040517f906a1c6bd7e3091ea86693dd029a831c19049ce77f1dce2ce0bab1cacbabce2290600090a250565b610539610fa8565b6001600160a01b031661054a610bd9565b6001600160a01b0316146105705760405162461bcd60e51b81526004016104de90611aac565b600380546001600160a01b0319166001600160a01b0392909216919091179055565b60025481565b7f8cad95687ba82c2ce50e74f7b754645e5117c3a5bec8151c0726d5857980a86681565b6001600160a01b03831660009081526004602090815260408083203380855290835281842054825160608101909352602580845291936001600160601b039091169285926106149288929190611d7090830139610f79565b9050866001600160a01b0316836001600160a01b03161415801561064157506001600160601b0382811614155b156106eb57600061066b83836040518060600160405280603d8152602001611de2603d9139610fac565b6001600160a01b038981166000818152600460209081526040808320948a16808452949091529081902080546001600160601b0319166001600160601b0386161790555192935090917f8c5be1e5ebec7d5bd14f71427d1e84f3dd0314c0f7b2291e5b200ac8c7c3b925906106e1908590611c75565b60405180910390a3505b6106f6878783610feb565b5060019695505050505050565b601281565b610710610fa8565b6001600160a01b0316610721610bd9565b6001600160a01b0316146107475760405162461bcd60e51b81526004016104de90611aac565b6001600160a01b03821661076d5760405162461bcd60e51b81526004016104de90611b3e565b600061079182604051806060016040528060228152602001611e4f60229139610f79565b90506107c96107ab600254836001600160601b0316611228565b604051806060016040528060278152602001611e7160279139610f79565b6001600160601b039081166002556001600160a01b03841660009081526005602090815260409182902054825160608101909352602580845261081c9491909116928592909190611dbd9083013961124d565b6001600160a01b03841660008181526005602052604080822080546001600160601b0319166001600160601b03959095169490941790935591519091907fddf252ad1be2c89b69c2b068fc378daa952ba7f163c4a11628f55a4df523b3ef90610886908590611c75565b60405180910390a36001600160a01b038084166000908152600660205260408120546108b3921683611289565b505050565b6001546001600160a01b031681565b6006602052600090815260409020546001600160a01b031681565b6108ec338261141b565b50565b60086020526000908152604090205463ffffffff1681565b6001600160a01b03166000908152600560205260409020546001600160601b031690565b600043821061094c5760405162461bcd60e51b81526004016104de90611a1f565b6001600160a01b03831660009081526008602052604090205463ffffffff168061097a576000915050610499565b6001600160a01b038416600090815260076020908152604080832063ffffffff6000198601811685529252909120541683106109f6576001600160a01b03841660009081526007602090815260408083206000199490940163ffffffff1683529290522054600160201b90046001600160601b03169050610499565b6001600160a01b038416600090815260076020908152604080832083805290915290205463ffffffff16831015610a31576000915050610499565b600060001982015b8163ffffffff168163ffffffff161115610af457600282820363ffffffff16048103610a63611685565b506001600160a01b038716600090815260076020908152604080832063ffffffff858116855290835292819020815180830190925254928316808252600160201b9093046001600160601b03169181019190915290871415610acf576020015194506104999350505050565b805163ffffffff16871115610ae657819350610aed565b6001820392505b5050610a39565b506001600160a01b038516600090815260076020908152604080832063ffffffff909416835292905220546001600160601b03600160201b9091041691505092915050565b6001546001600160a01b03163314610b635760405162461bcd60e51b81526004016104de90611951565b600154600080546040516001600160a01b0393841693909116917fb532073b38c83145e3e5135377a08bf9aab55bc0fd7c1179cd4fb995d2a5159c91a360018054600080546001600160a01b03199081166001600160a01b03841617909155169055565b60096020526000908152604090205481565b6000546001600160a01b031690565b604051806040016040528060048152602001635344414f60e01b81525081565b600080610c2d83604051806060016040528060268152602001611d4a60269139610f79565b9050610c3a338583610feb565b5060019392505050565b6001600160a01b03811660009081526008602052604081205463ffffffff1680610c6f576000610cae565b6001600160a01b0383166000908152600760209081526040808320600019850163ffffffff168452909152902054600160201b90046001600160601b03165b9392505050565b60408051808201909152600f81526e53696e67756c61726974792044616f60881b60209091015260007f8cad95687ba82c2ce50e74f7b754645e5117c3a5bec8151c0726d5857980a8667f7c9d3f21e68ea39f1cc093a5190b31effd6eb2d11fdda1da452d0ff7f90320d0610d286114a5565b30604051602001610d3c94939291906118bc565b60405160208183030381529060405280519060200120905060007fe48329057bfd03d55e49b547132e39cffd9c1820ad7b9d4c5307691425d15adf888888604051602001610d8d9493929190611898565b60405160208183030381529060405280519060200120905060008282604051602001610dba92919061183b565b604051602081830303815290604052805190602001209050600060018288888860405160008152602001604052604051610df794939291906118e0565b6020604051602081039080840390855afa158015610e19573d6000803e3d6000fd5b5050604051601f1901519150506001600160a01b038116610e4c5760405162461bcd60e51b81526004016104de90611a66565b6001600160a01b03811660009081526009602052604090208054600181019091558914610e8b5760405162461bcd60e51b81526004016104de906119a6565b87421115610eab5760405162461bcd60e51b81526004016104de90611bf1565b610eb5818b61141b565b505050505b505050505050565b6003546001600160a01b031681565b6001600160a01b0391821660009081526004602090815260408083209390941682529190915220546001600160601b031690565b7fe48329057bfd03d55e49b547132e39cffd9c1820ad7b9d4c5307691425d15adf81565b6001600160a01b031660009081526009602052604090205490565b600760209081526000928352604080842090915290825290205463ffffffff811690600160201b90046001600160601b031682565b600081600160601b8410610fa05760405162461bcd60e51b81526004016104de91906118fe565b509192915050565b3390565b6000836001600160601b0316836001600160601b031611158290610fe35760405162461bcd60e51b81526004016104de91906118fe565b505050900390565b6001600160a01b0383166110115760405162461bcd60e51b81526004016104de90611b94565b6001600160a01b0382166110375760405162461bcd60e51b81526004016104de90611ae1565b6003546001600160a01b0316156110ce5760035460405163aa61a9dd60e01b81526001600160a01b039091169063aa61a9dd9061107a908690869060040161186a565b6040805180830381600087803b15801561109357600080fd5b505af11580156110a7573d6000803e3d6000fd5b505050506040513d601f19601f820116820180604052508101906110cb919061180a565b50505b6001600160a01b038316600090815260056020908152604091829020548251606081019093526036808452611119936001600160601b039092169285929190611cb990830139610fac565b6001600160a01b03848116600090815260056020908152604080832080546001600160601b0319166001600160601b039687161790559286168252908290205482516060810190935260308084526111819491909116928592909190611e1f9083013961124d565b6001600160a01b038381166000818152600560205260409081902080546001600160601b0319166001600160601b0395909516949094179093559151908516907fddf252ad1be2c89b69c2b068fc378daa952ba7f163c4a11628f55a4df523b3ef906111ee908590611c75565b60405180910390a36001600160a01b038084166000908152600660205260408082205485841683529120546108b392918216911683611289565b600082820183811015610cae5760405162461bcd60e51b81526004016104de906119e8565b6000838301826001600160601b0380871690831610156112805760405162461bcd60e51b81526004016104de91906118fe565b50949350505050565b816001600160a01b0316836001600160a01b0316141580156112b457506000816001600160601b0316115b156108b3576001600160a01b0383161561136c576001600160a01b03831660009081526008602052604081205463ffffffff1690816112f4576000611333565b6001600160a01b0385166000908152600760209081526040808320600019860163ffffffff168452909152902054600160201b90046001600160601b03165b9050600061135a8285604051806060016040528060288152602001611d9560289139610fac565b9050611368868484846114a9565b5050505b6001600160a01b038216156108b3576001600160a01b03821660009081526008602052604081205463ffffffff1690816113a75760006113e6565b6001600160a01b0384166000908152600760209081526040808320600019860163ffffffff168452909152902054600160201b90046001600160601b03165b9050600061140d8285604051806060016040528060278152602001611d236027913961124d565b9050610eba858484846114a9565b6001600160a01b03808316600081815260066020818152604080842080546005845282862054949093528787166001600160a01b031984168117909155905191909516946001600160601b039092169391928592917f3134e8a2e6d97e929a7e54011ea5485d7d196dd5f0ba4d4ef95803e8e3fc257f9190a461149f828483611289565b50505050565b4690565b60006114cd43604051806060016040528060348152602001611cef6034913961165e565b905060008463ffffffff1611801561151657506001600160a01b038516600090815260076020908152604080832063ffffffff6000198901811685529252909120548282169116145b15611575576001600160a01b0385166000908152600760209081526040808320600019880163ffffffff168452909152902080546fffffffffffffffffffffffff000000001916600160201b6001600160601b03851602179055611614565b60408051808201825263ffffffff80841682526001600160601b0380861660208085019182526001600160a01b038b166000818152600783528781208c871682528352878120965187549451909516600160201b026fffffffffffffffffffffffff000000001995871663ffffffff19958616179590951694909417909555938252600890935292909220805460018801909316929091169190911790555b846001600160a01b03167fdec2bacdd2f05b59de34da9b523dff8be42e5e38e818c82fdb0bae774387a724848460405161164f929190611c89565b60405180910390a25050505050565b600081600160201b8410610fa05760405162461bcd60e51b81526004016104de91906118fe565b604080518082019091526000808252602082015290565b80356001600160a01b038116811461049957600080fd5b6000602082840312156116c4578081fd5b610cae838361169c565b600080604083850312156116e0578081fd5b6116ea848461169c565b91506116f9846020850161169c565b90509250929050565b600080600060608486031215611716578081fd5b833561172181611ca3565b9250602084013561173181611ca3565b929592945050506040919091013590565b60008060408385031215611754578182fd5b61175e848461169c565b946020939093013593505050565b60008060008060008060c08789031215611784578182fd5b61178e888861169c565b95506020870135945060408701359350606087013560ff811681146117b1578283fd5b9598949750929560808101359460a0909101359350915050565b600080604083850312156117dd578182fd5b6117e7848461169c565b9150602083013563ffffffff811681146117ff578182fd5b809150509250929050565b6000806040838503121561181c578182fd5b8251801515811461182b578283fd5b6020939093015192949293505050565b61190160f01b81526002810192909252602282015260420190565b6001600160a01b0391909116815260200190565b6001600160a01b0392831681529116602082015260400190565b901515815260200190565b90815260200190565b9384526001600160a01b039290921660208401526040830152606082015260800190565b938452602084019290925260408301526001600160a01b0316606082015260800190565b93845260ff9290921660208401526040830152606082015260800190565b6000602080835283518082850152825b8181101561192a5785810183015185820160400152820161190e565b8181111561193b5783604083870101525b50601f01601f1916929092016040019392505050565b60208082526035908201527f596f75206d757374206265206e6f6d696e61746564206265666f726520796f7560408201527402063616e20616363657074206f776e65727368697605c1b606082015260800190565b60208082526022908201527f7364616f3a3a64656c656761746542795369673a20696e76616c6964206e6f6e604082015261636560f01b606082015260800190565b6020808252601b908201527f536166654d6174683a206164646974696f6e206f766572666c6f770000000000604082015260600190565b60208082526027908201527f7364616f3a3a6765745072696f72566f7465733a206e6f742079657420646574604082015266195c9b5a5b995960ca1b606082015260800190565b60208082526026908201527f7364616f3a3a64656c656761746542795369673a20696e76616c6964207369676040820152656e617475726560d01b606082015260800190565b6020808252818101527f4f776e61626c653a2063616c6c6572206973206e6f7420746865206f776e6572604082015260600190565b6020808252603a908201527f7364616f3a3a5f7472616e73666572546f6b656e733a2063616e6e6f7420747260408201527f616e7366657220746f20746865207a65726f2061646472657373000000000000606082015260800190565b60208082526036908201527f5364616f3a3a5f7472616e73666572546f6b656e733a2063616e6e6f74206d696040820152756e7420746f20746865207a65726f206164647265737360501b606082015260800190565b6020808252603c908201527f7364616f3a3a5f7472616e73666572546f6b656e733a2063616e6e6f7420747260408201527f616e736665722066726f6d20746865207a65726f206164647265737300000000606082015260800190565b60208082526026908201527f7364616f3a3a64656c656761746542795369673a207369676e617475726520656040820152651e1c1a5c995960d21b606082015260800190565b63ffffffff91909116815260200190565b63ffffffff9290921682526001600160601b0316602082015260400190565b60ff91909116815260200190565b6001600160601b0391909116815260200190565b6001600160601b0392831681529116602082015260400190565b6001600160a01b03811681146108ec57600080fdfe7364616f3a3a5f7472616e73666572546f6b656e733a207472616e7366657220616d6f756e7420657863656564732062616c616e63657364616f3a3a5f7772697465436865636b706f696e743a20626c6f636b206e756d626572206578636565647320333220626974737364616f3a3a5f6d6f7665566f7465733a20766f746520616d6f756e74206f766572666c6f77735344414f3a3a7472616e736665723a20616d6f756e74206578636565647320393620626974735344414f3a3a617070726f76653a20616d6f756e74206578636565647320393620626974737364616f3a3a5f6d6f7665566f7465733a20766f746520616d6f756e7420756e646572666c6f77735364616f3a3a6d696e743a207472616e7366657220616d6f756e74206f766572666c6f77735344414f3a3a7472616e7366657246726f6d3a207472616e7366657220616d6f756e742065786365656473207370656e64657220616c6c6f77616e63657364616f3a3a5f7472616e73666572546f6b656e733a207472616e7366657220616d6f756e74206f766572666c6f77735364616f3a3a6d696e743a20616d6f756e74206578636565647320393620626974735364616f3a3a6d696e743a20746f74616c537570706c7920657863656564732039362062697473a26469706673582212202fd3352fd46c24f78d07e5933d09a14ffc2e7502bf56974cfa3978b20951097664736f6c634300060c0033",
  "immutableReferences": {},
  "source": "// SPDX-License-Identifier: MIT\r\npragma solidity ^0.6.0;\r\npragma experimental ABIEncoderV2;\r\n\r\nimport \"./SafeMath.sol\";\r\nimport \"./Ownable.sol\";\r\n\r\ncontract SingDao is Ownable {\r\n    /// @notice EIP-20 token name for this token\r\n    string public constant name = \"Singularity Dao\";\r\n\r\n    /// @notice EIP-20 token symbol for this token\r\n    string public constant symbol = \"SDAO\";\r\n\r\n    /// @notice EIP-20 token decimals for this token\r\n    uint8 public constant decimals = 18;\r\n\r\n    /// @notice Total number of tokens in circulation\r\n    uint256 public totalSupply = 100_000_000e18;\r\n\r\n    ILocker public locker;\r\n\r\n    mapping(address => mapping(address => uint96)) internal allowances;\r\n\r\n    mapping(address => uint96) internal balances;\r\n\r\n    mapping(address => address) public delegates;\r\n\r\n    struct Checkpoint {\r\n        uint32 fromBlock;\r\n        uint96 votes;\r\n    }\r\n\r\n    mapping(address => mapping(uint32 => Checkpoint)) public checkpoints;\r\n\r\n    mapping(address => uint32) public numCheckpoints;\r\n\r\n    bytes32 public constant DOMAIN_TYPEHASH =\r\n        keccak256(\r\n            \"EIP712Domain(string name,uint256 chainId,address verifyingContract)\"\r\n        );\r\n\r\n    bytes32 public constant DELEGATION_TYPEHASH =\r\n        keccak256(\"Delegation(address delegatee,uint256 nonce,uint256 expiry)\");\r\n\r\n    mapping(address => uint256) public nonces;\r\n\r\n    event DelegateChanged(\r\n        address indexed delegator,\r\n        address indexed fromDelegate,\r\n        address indexed toDelegate\r\n    );\r\n\r\n    event DelegateVotesChanged(\r\n        address indexed delegate,\r\n        uint256 previousBalance,\r\n        uint256 newBalance\r\n    );\r\n\r\n    event Transfer(address indexed from, address indexed to, uint256 amount);\r\n\r\n    event Approval(\r\n        address indexed owner,\r\n        address indexed spender,\r\n        uint256 amount\r\n    );\r\n\r\n    constructor(address account) public {\r\n        balances[account] = uint96(totalSupply);\r\n        emit Transfer(address(0), account, totalSupply);\r\n    }\r\n\r\n    function mint(address dst, uint256 rawAmount) external onlyOwner {\r\n        // mint the amount\r\n        require(\r\n            dst != address(0),\r\n            \"Sdao::_transferTokens: cannot mint to the zero address\"\r\n        );\r\n\r\n        uint96 amount = safe96(rawAmount, \"Sdao::mint: amount exceeds 96 bits\");\r\n        totalSupply = safe96(\r\n            SafeMath.add(totalSupply, amount),\r\n            \"Sdao::mint: totalSupply exceeds 96 bits\"\r\n        );\r\n\r\n        // transfer the amount to the recipient\r\n        balances[dst] = add96(\r\n            balances[dst],\r\n            amount,\r\n            \"Sdao::mint: transfer amount overflows\"\r\n        );\r\n        emit Transfer(address(0), dst, amount);\r\n\r\n        // move delegates\r\n        _moveDelegates(address(0), delegates[dst], amount);\r\n    }\r\n\r\n    function allowance(address account, address spender)\r\n        external\r\n        view\r\n        returns (uint256)\r\n    {\r\n        return allowances[account][spender];\r\n    }\r\n\r\n    function approve(address spender, uint256 rawAmount)\r\n        external\r\n        returns (bool)\r\n    {\r\n        uint96 amount;\r\n        if (rawAmount == uint256(-1)) {\r\n            amount = uint96(-1);\r\n        } else {\r\n            amount = safe96(rawAmount, \"SDAO::approve: amount exceeds 96 bits\");\r\n        }\r\n\r\n        allowances[msg.sender][spender] = amount;\r\n\r\n        emit Approval(msg.sender, spender, amount);\r\n        return true;\r\n    }\r\n\r\n    function balanceOf(address account) external view returns (uint256) {\r\n        return balances[account];\r\n    }\r\n\r\n    function nonceOf(address account) external view returns (uint256) {\r\n        return nonces[account];\r\n    }\r\n\r\n    function transfer(address dst, uint256 rawAmount) external returns (bool) {\r\n        uint96 amount = safe96(\r\n            rawAmount,\r\n            \"SDAO::transfer: amount exceeds 96 bits\"\r\n        );\r\n        _transferTokens(msg.sender, dst, amount);\r\n        return true;\r\n    }\r\n\r\n    function transferFrom(\r\n        address src,\r\n        address dst,\r\n        uint256 rawAmount\r\n    ) external returns (bool) {\r\n        address spender = msg.sender;\r\n        uint96 spenderAllowance = allowances[src][spender];\r\n        uint96 amount = safe96(\r\n            rawAmount,\r\n            \"SDAO::approve: amount exceeds 96 bits\"\r\n        );\r\n\r\n        if (spender != src && spenderAllowance != uint96(-1)) {\r\n            uint96 newAllowance = sub96(\r\n                spenderAllowance,\r\n                amount,\r\n                \"SDAO::transferFrom: transfer amount exceeds spender allowance\"\r\n            );\r\n            allowances[src][spender] = newAllowance;\r\n\r\n            emit Approval(src, spender, newAllowance);\r\n        }\r\n\r\n        _transferTokens(src, dst, amount);\r\n        return true;\r\n    }\r\n\r\n    function delegate(address delegatee) public {\r\n        return _delegate(msg.sender, delegatee);\r\n    }\r\n\r\n    function delegateBySig(\r\n        address delegatee,\r\n        uint256 nonce,\r\n        uint256 expiry,\r\n        uint8 v,\r\n        bytes32 r,\r\n        bytes32 s\r\n    ) public {\r\n        bytes32 domainSeparator = keccak256(\r\n            abi.encode(\r\n                DOMAIN_TYPEHASH,\r\n                keccak256(bytes(name)),\r\n                getChainId(),\r\n                address(this)\r\n            )\r\n        );\r\n        bytes32 structHash = keccak256(\r\n            abi.encode(DELEGATION_TYPEHASH, delegatee, nonce, expiry)\r\n        );\r\n        bytes32 digest = keccak256(\r\n            abi.encodePacked(\"\\x19\\x01\", domainSeparator, structHash)\r\n        );\r\n        address signatory = ecrecover(digest, v, r, s);\r\n        require(\r\n            signatory != address(0),\r\n            \"sdao::delegateBySig: invalid signature\"\r\n        );\r\n        require(\r\n            nonce == nonces[signatory]++,\r\n            \"sdao::delegateBySig: invalid nonce\"\r\n        );\r\n        require(now <= expiry, \"sdao::delegateBySig: signature expired\");\r\n        return _delegate(signatory, delegatee);\r\n    }\r\n\r\n    function getCurrentVotes(address account) external view returns (uint96) {\r\n        uint32 nCheckpoints = numCheckpoints[account];\r\n        return\r\n            nCheckpoints > 0 ? checkpoints[account][nCheckpoints - 1].votes : 0;\r\n    }\r\n\r\n    function getPriorVotes(address account, uint256 blockNumber)\r\n        public\r\n        view\r\n        returns (uint96)\r\n    {\r\n        require(\r\n            blockNumber < block.number,\r\n            \"sdao::getPriorVotes: not yet determined\"\r\n        );\r\n\r\n        uint32 nCheckpoints = numCheckpoints[account];\r\n        if (nCheckpoints == 0) {\r\n            return 0;\r\n        }\r\n\r\n        if (checkpoints[account][nCheckpoints - 1].fromBlock <= blockNumber) {\r\n            return checkpoints[account][nCheckpoints - 1].votes;\r\n        }\r\n\r\n        if (checkpoints[account][0].fromBlock > blockNumber) {\r\n            return 0;\r\n        }\r\n\r\n        uint32 lower = 0;\r\n        uint32 upper = nCheckpoints - 1;\r\n        while (upper > lower) {\r\n            uint32 center = upper - (upper - lower) / 2;\r\n            Checkpoint memory cp = checkpoints[account][center];\r\n            if (cp.fromBlock == blockNumber) {\r\n                return cp.votes;\r\n            } else if (cp.fromBlock < blockNumber) {\r\n                lower = center;\r\n            } else {\r\n                upper = center - 1;\r\n            }\r\n        }\r\n        return checkpoints[account][lower].votes;\r\n    }\r\n\r\n    function _delegate(address delegator, address delegatee) internal {\r\n        address currentDelegate = delegates[delegator];\r\n        uint96 delegatorBalance = balances[delegator];\r\n        delegates[delegator] = delegatee;\r\n\r\n        emit DelegateChanged(delegator, currentDelegate, delegatee);\r\n\r\n        _moveDelegates(currentDelegate, delegatee, delegatorBalance);\r\n    }\r\n\r\n    function _transferTokens(\r\n        address src,\r\n        address dst,\r\n        uint96 amount\r\n    ) internal {\r\n        require(\r\n            src != address(0),\r\n            \"sdao::_transferTokens: cannot transfer from the zero address\"\r\n        );\r\n        require(\r\n            dst != address(0),\r\n            \"sdao::_transferTokens: cannot transfer to the zero address\"\r\n        );\r\n\r\n        if (address(locker) != address(0)) {\r\n            locker.lockOrGetPenalty(src, dst);\r\n        }\r\n\r\n        balances[src] = sub96(\r\n            balances[src],\r\n            amount,\r\n            \"sdao::_transferTokens: transfer amount exceeds balance\"\r\n        );\r\n        balances[dst] = add96(\r\n            balances[dst],\r\n            amount,\r\n            \"sdao::_transferTokens: transfer amount overflows\"\r\n        );\r\n\r\n        emit Transfer(src, dst, amount);\r\n\r\n        _moveDelegates(delegates[src], delegates[dst], amount);\r\n    }\r\n\r\n    function _moveDelegates(\r\n        address srcRep,\r\n        address dstRep,\r\n        uint96 amount\r\n    ) internal {\r\n        if (srcRep != dstRep && amount > 0) {\r\n            if (srcRep != address(0)) {\r\n                uint32 srcRepNum = numCheckpoints[srcRep];\r\n                uint96 srcRepOld = srcRepNum > 0\r\n                    ? checkpoints[srcRep][srcRepNum - 1].votes\r\n                    : 0;\r\n                uint96 srcRepNew = sub96(\r\n                    srcRepOld,\r\n                    amount,\r\n                    \"sdao::_moveVotes: vote amount underflows\"\r\n                );\r\n                _writeCheckpoint(srcRep, srcRepNum, srcRepOld, srcRepNew);\r\n            }\r\n\r\n            if (dstRep != address(0)) {\r\n                uint32 dstRepNum = numCheckpoints[dstRep];\r\n                uint96 dstRepOld = dstRepNum > 0\r\n                    ? checkpoints[dstRep][dstRepNum - 1].votes\r\n                    : 0;\r\n                uint96 dstRepNew = add96(\r\n                    dstRepOld,\r\n                    amount,\r\n                    \"sdao::_moveVotes: vote amount overflows\"\r\n                );\r\n                _writeCheckpoint(dstRep, dstRepNum, dstRepOld, dstRepNew);\r\n            }\r\n        }\r\n    }\r\n\r\n    function _writeCheckpoint(\r\n        address delegatee,\r\n        uint32 nCheckpoints,\r\n        uint96 oldVotes,\r\n        uint96 newVotes\r\n    ) internal {\r\n        uint32 blockNumber = safe32(\r\n            block.number,\r\n            \"sdao::_writeCheckpoint: block number exceeds 32 bits\"\r\n        );\r\n\r\n        if (\r\n            nCheckpoints > 0 &&\r\n            checkpoints[delegatee][nCheckpoints - 1].fromBlock == blockNumber\r\n        ) {\r\n            checkpoints[delegatee][nCheckpoints - 1].votes = newVotes;\r\n        } else {\r\n            checkpoints[delegatee][nCheckpoints] = Checkpoint(\r\n                blockNumber,\r\n                newVotes\r\n            );\r\n            numCheckpoints[delegatee] = nCheckpoints + 1;\r\n        }\r\n\r\n        emit DelegateVotesChanged(delegatee, oldVotes, newVotes);\r\n    }\r\n\r\n    function safe32(uint256 n, string memory errorMessage)\r\n        internal\r\n        pure\r\n        returns (uint32)\r\n    {\r\n        require(n < 2**32, errorMessage);\r\n        return uint32(n);\r\n    }\r\n\r\n    function safe96(uint256 n, string memory errorMessage)\r\n        internal\r\n        pure\r\n        returns (uint96)\r\n    {\r\n        require(n < 2**96, errorMessage);\r\n        return uint96(n);\r\n    }\r\n\r\n    function add96(\r\n        uint96 a,\r\n        uint96 b,\r\n        string memory errorMessage\r\n    ) internal pure returns (uint96) {\r\n        uint96 c = a + b;\r\n        require(c >= a, errorMessage);\r\n        return c;\r\n    }\r\n\r\n    function sub96(\r\n        uint96 a,\r\n        uint96 b,\r\n        string memory errorMessage\r\n    ) internal pure returns (uint96) {\r\n        require(b <= a, errorMessage);\r\n        return a - b;\r\n    }\r\n\r\n    function getChainId() internal pure returns (uint256) {\r\n        uint256 chainId;\r\n        assembly {\r\n            chainId := chainid()\r\n        }\r\n        return chainId;\r\n    }\r\n\r\n    function setLocker(address _locker) external onlyOwner {\r\n        locker = ILocker(_locker);\r\n    }\r\n}\r\n\r\ninterface ILocker {\r\n    function lockOrGetPenalty(address source, address dest)\r\n        external\r\n        returns (bool, uint256);\r\n}\r\n",
  "sourcePath": "C:/Users/Tomas/Desktop/SingularityDAO/repos/airdrop/contracts/SingDao/SingDao.sol",
  "compiler": {
    "name": "solc",
    "version": "0.6.12+commit.27d51765.Emscripten.clang"
  },
  "schemaVersion": "3.4.1",
  "updatedAt": "2021-06-24T23:25:30.705Z",
  "networkType": "ethereum",
  "devdoc": {
    "kind": "dev",
    "methods": {
      "owner()": {
        "details": "Returns the address of the current owner."
      }
    },
    "version": 1
  },
  "userdoc": {
    "kind": "user",
    "methods": {
      "decimals()": {
        "notice": "EIP-20 token decimals for this token"
      },
      "name()": {
        "notice": "EIP-20 token name for this token"
      },
      "symbol()": {
        "notice": "EIP-20 token symbol for this token"
      },
      "totalSupply()": {
        "notice": "Total number of tokens in circulation"
      }
    },
    "version": 1
  }
}